{"abi":[{"type":"function","name":"selectors","inputs":[],"outputs":[{"name":"","type":"bytes4","internalType":"bytes4"},{"name":"","type":"bytes4","internalType":"bytes4"}],"stateMutability":"pure"},{"type":"function","name":"tokenAllowance","inputs":[{"name":"token","type":"address","internalType":"contract IToken"},{"name":"owner","type":"address","internalType":"address"},{"name":"spender","type":"address","internalType":"address"}],"outputs":[{"name":"","type":"uint256","internalType":"uint256"}],"stateMutability":"view"},{"type":"function","name":"touchOtherInterfaces","inputs":[{"name":"exchange","type":"address","internalType":"contract IExchange"},{"name":"registry","type":"address","internalType":"contract IRegistry"},{"name":"edgeCases","type":"address","internalType":"contract IEdgeCases"}],"outputs":[{"name":"","type":"address","internalType":"address"},{"name":"","type":"address","internalType":"address"},{"name":"","type":"address","internalType":"address"}],"stateMutability":"pure"},{"type":"function","name":"vaultShares","inputs":[{"name":"vault","type":"address","internalType":"contract IVault"},{"name":"user","type":"address","internalType":"address"}],"outputs":[{"name":"","type":"uint256","internalType":"uint256"}],"stateMutability":"view"}],"bytecode":{"object":"0x6080604052348015600e575f5ffd5b506107c28061001c5f395ff3fe608060405234801561000f575f5ffd5b506004361061004a575f3560e01c80634ff38a6e1461004e5780636e25b9781461007e5780637689e3241461009d5780638e8758d8146100cf575b5f5ffd5b610068600480360381019061006391906102ee565b6100ff565b6040516100759190610344565b60405180910390f35b610086610188565b604051610094929190610397565b60405180910390f35b6100b760048036038101906100b2919061046f565b6101a2565b6040516100c6939291906104ce565b60405180910390f35b6100e960048036038101906100e4919061053e565b6101b7565b6040516100f69190610344565b60405180910390f35b5f5f8373ffffffffffffffffffffffffffffffffffffffff166316c19739846040518263ffffffff1660e01b815260040161013a919061058e565b606060405180830381865afa158015610155573d5f5f3e3d5ffd5b505050506040513d601f19601f82011682018060405250810190610179919061070f565b9050805f015191505092915050565b5f5f63db42144d60e01b63cb1d8bba60e01b915091509091565b5f5f5f85858592509250925093509350939050565b5f8373ffffffffffffffffffffffffffffffffffffffff1663dd62ed3e84846040518363ffffffff1660e01b81526004016101f392919061073a565b602060405180830381865afa15801561020e573d5f5f3e3d5ffd5b505050506040513d601f19601f820116820180604052508101906102329190610761565b90509392505050565b5f604051905090565b5f5ffd5b5f73ffffffffffffffffffffffffffffffffffffffff82169050919050565b5f61027182610248565b9050919050565b5f61028282610267565b9050919050565b61029281610278565b811461029c575f5ffd5b50565b5f813590506102ad81610289565b92915050565b5f6102bd82610248565b9050919050565b6102cd816102b3565b81146102d7575f5ffd5b50565b5f813590506102e8816102c4565b92915050565b5f5f6040838503121561030457610303610244565b5b5f6103118582860161029f565b9250506020610322858286016102da565b9150509250929050565b5f819050919050565b61033e8161032c565b82525050565b5f6020820190506103575f830184610335565b92915050565b5f7fffffffff0000000000000000000000000000000000000000000000000000000082169050919050565b6103918161035d565b82525050565b5f6040820190506103aa5f830185610388565b6103b76020830184610388565b9392505050565b5f6103c882610267565b9050919050565b6103d8816103be565b81146103e2575f5ffd5b50565b5f813590506103f3816103cf565b92915050565b5f610403826102b3565b9050919050565b610413816103f9565b811461041d575f5ffd5b50565b5f8135905061042e8161040a565b92915050565b5f61043e82610267565b9050919050565b61044e81610434565b8114610458575f5ffd5b50565b5f8135905061046981610445565b92915050565b5f5f5f6060848603121561048657610485610244565b5b5f610493868287016103e5565b93505060206104a486828701610420565b92505060406104b58682870161045b565b9150509250925092565b6104c8816102b3565b82525050565b5f6060820190506104e15f8301866104bf565b6104ee60208301856104bf565b6104fb60408301846104bf565b949350505050565b5f61050d826102b3565b9050919050565b61051d81610503565b8114610527575f5ffd5b50565b5f8135905061053881610514565b92915050565b5f5f5f6060848603121561055557610554610244565b5b5f6105628682870161052a565b9350506020610573868287016102da565b9250506040610584868287016102da565b9150509250925092565b5f6020820190506105a15f8301846104bf565b92915050565b5f5ffd5b5f601f19601f8301169050919050565b7f4e487b71000000000000000000000000000000000000000000000000000000005f52604160045260245ffd5b6105f1826105ab565b810181811067ffffffffffffffff821117156106105761060f6105bb565b5b80604052505050565b5f61062261023b565b905061062e82826105e8565b919050565b61063c8161032c565b8114610646575f5ffd5b50565b5f8151905061065781610633565b92915050565b5f67ffffffffffffffff82169050919050565b6106798161065d565b8114610683575f5ffd5b50565b5f8151905061069481610670565b92915050565b5f815190506106a8816102c4565b92915050565b5f606082840312156106c3576106c26105a7565b5b6106cd6060610619565b90505f6106dc84828501610649565b5f8301525060206106ef84828501610686565b60208301525060406107038482850161069a565b60408301525092915050565b5f6060828403121561072457610723610244565b5b5f610731848285016106ae565b91505092915050565b5f60408201905061074d5f8301856104bf565b61075a60208301846104bf565b9392505050565b5f6020828403121561077657610775610244565b5b5f61078384828501610649565b9150509291505056fea26469706673582212202b5cac4d66c42fe2b99fba9ca7541acb0e25239e8a2967495b63fa6ce91204a064736f6c63430008220033","linkReferences":{}},"methodIdentifiers":{"selectors()":"6e25b978","tokenAllowance(address,address,address)":"8e8758d8","touchOtherInterfaces(address,address,address)":"7689e324","vaultShares(address,address)":"4ff38a6e"},"id":0}